:020000040800F2
:1000000000010020A1010008B1090008B1090008A1
:10001000B1090008B1090008B1090008B1090008D8
:10002000B1090008B1090008B1090008090F00086A
:10003000B1090008B1090008B1090008B1090008B8
:10004000B1090008B1090008B1090008B1090008A8
:10005000B1090008B1090008B1090008D51001086C
:10006000ED10010805110108B1090008B1090008E7
:10007000B1090008B1090008B9100108B109000868
:10008000B1090008B1090008B90B0108B10900085D
:10009000B1090008B1090008B1090008B109000858
:1000A000B1090008B1090008B1090008B109000848
:1000B000F11D0008B1090008B1090008B1090008E4
:1000C000B1090008B1090008B1090008B109000828
:1000D000B1090008751E0008B1090008B10900083F
:1000E000B1090008B1090008B1090008B109000808
:1000F000B1090008B1090008B1090008B1090008F8
:10010000B1090008B1090008B1090008B1090008E7
:10011000B1090008B1090008B1090008B1090008D7
:10012000B1090008B1090008B1090008B1090008C7
:10013000B1090008B1090008B1090008B1090008B7
:10014000B1090008B1090008B1090008B1090008A7
:10015000B1090008B1090008B1090008B109000897
:10016000B1090008B1090008B10900089921000887
:10017000B1090008B1090008B1090008B109000877
:10018000B1090008B1090008B1090008B109000867
:10019000B1090008B1090008B1090008B109000857
:1001A00072B6344880F3098840F20000CCF20000B7
:1001B0004EF63471CEF200010860BFF34F8FBFF3EB
:1001C0006F8F40F20000C0F2F0004EF68851CEF280
:1001D00000010860BFF34F8FBFF36F8F4FF0000037
:1001E000E1EE100A4EF63C71CEF2000108600620E6
:1001F00080F31488BFF36F8F00F0AAFB02F01CF9A4
:100200004FF055301C491D4A91423CBF41F8040B48
:10021000FAE71B49174A91423CBF41F8040BFAE741
:100220001849194A194B9A423EBF51F8040B42F83B
:10023000040BF8E700201649164A91423CBF41F8EA
:10024000040BFAE700F08AFB00F084FB124C134D1C
:10025000AC4203DA54F8041B8847F9E708F094FA33
:100260000F4C104DAC4203DA54F8041B8847F9E7F1
:1002700000F072BB000300200000002000010020FD
:10028000000100203C9E010800030020F80300202C
:10029000F8030020FC990020A0010008A00100083C
:1002A000A0010008A00100082DE9F04F2DED108AF3
:1002B000C1F80CD0C3689D46BDEC108ABDE8F08F34
:1002C000002383F311882846A047002000F0DAFDC0
:1002D00000F066FD00DFFEE781F0004102E000BFB4
:1002E00083F0004330B54FEA41044FEA430594EAF6
:1002F000050F08BF90EA020F1FBF54EA000C55EA31
:10030000020C7FEA645C7FEA655C00F0E2804FEA01
:100310005454D4EB5555B8BF6D420CDD2C4480EAE3
:10032000020281EA030382EA000083EA010180EA13
:10033000020281EA0303362D88BF30BD11F0004F61
:100340004FEA01314FF4801C4CEA113102D0404297
:1003500061EB410113F0004F4FEA03334CEA1333D2
:1003600002D0524263EB430394EA050F00F0A780EA
:10037000A4F10104D5F1200E0DDB02FA0EFC22FAE5
:1003800005F2801841F1000103FA0EF2801843FAD9
:1003900005F359410EE0A5F120050EF1200E012ACA
:1003A00003FA0EFC28BF4CF0020C43FA05F3C01808
:1003B00051EBE37101F0004507D54FF0000EDCF181
:1003C000000C7EEB00006EEB0101B1F5801F1BD32A
:1003D000B1F5001F0CD349085FEA30004FEA3C0C2E
:1003E00004F101044FEA445212F5800F80F09A8024
:1003F000BCF1004F08BF5FEA500C50F1000041EB28
:10040000045141EA050130BD5FEA4C0C404141EB2B
:100410000101013C28BFB1F5801FE9D291F0000F26
:1004200004BF01460020B1FA81F308BF2033A3F1D5
:100430000B03B3F120020CDA0C3208DD02F1140CCC
:10044000C2F10C0201FA0CF021FA02F10CE002F107
:100450001402D8BFC2F1200C01FA02F120FA0CFC00
:10046000DCBF41EA0C019040E41AA2BF01EB045149
:10047000294330BD6FEA04041F3C1CDA0C340EDC47
:1004800004F11404C4F1200220FA04F001FA02F38A
:1004900040EA030021FA04F345EA030130BDC4F148
:1004A0000C04C4F1200220FA02F001FA04F340EA3D
:1004B0000300294630BD21FA04F0294630BD94F0EE
:1004C000000F83F4801306BF81F480110134013DD5
:1004D0004EE77FEA645C18BF7FEA655C29D094EA46
:1004E000050F08BF90EA020F05D054EA000C04BFC4
:1004F0001946104630BD91EA030F1EBF00210020AF
:1005000030BD5FEA545C05D14000494128BF41F04D
:10051000004130BD14F580043CBF01F5801130BDB1
:1005200001F0004545F0FE4141F470014FF000003C
:1005300030BD7FEA645C1ABF194610467FEA655CED
:100540001CBF0B46024650EA013406BF52EA03358F
:1005500091EA030F41F4002130BD00BF90F0000F7D
:1005600004BF0021704730B54FF4806404F13204B9
:100570004FF000054FF0000150E700BF90F0000F72
:1005800004BF0021704730B54FF4806404F1320499
:1005900010F0004548BF40424FF000013EE700BF69
:1005A00042004FEAE2014FEA31014FEA02701FBFF9
:1005B00012F07F4393F07F4F81F06051704732F02B
:1005C0007F4208BF704793F07F4F04BF41F4002182
:1005D000704730B54FF4607401F0004521F00041E0
:1005E0001CE700BF50EA010208BF704730B54FF06A
:1005F00000050AE050EA010208BF704730B511F06B
:10060000004502D5404261EB41014FF4806404F1A2
:1006100032045FEA915C3FF4D8AE4FF003025FEA28
:10062000DC0C18BF03325FEADC0C18BF033202EBAC
:10063000DC02C2F1200300FA03FC20FA02F001FA06
:1006400003FE40EA0E0021FA02F11444BDE600BFA9
:100650004FEA4102B2F1E04324BFB3F5001CDCF1E4
:10066000FE5C0DD901F0004C4FEAC0024CEA50701C
:10067000B2F1004F40EB830008BF20F0010070474B
:1006800011F0804F21D113F13872BCBF01F000404E
:10069000704741F480114FEA5252C2F11802C2F180
:1006A000200C10FA0CF320FA02F018BF40F0010001
:1006B0004FEAC1234FEAD32303FA0CFC40EA0C00B3
:1006C00023FA02F34FEA4303CCE77FEA625307D1F0
:1006D00050EA01331EBF4FF0FE4040F44000704727
:1006E00001F0004040F0FE4040F40000704700BFC1
:1006F00080F0004002E000BF81F0004142001FBFD7
:100700005FEA410392EA030F7FEA226C7FEA236CDF
:100710006AD04FEA1262D2EB1363C1BFD2184140D4
:1007200048404140B8BF5B42192B88BF704710F06A
:10073000004F40F4000020F07F4018BF404211F00D
:10074000004F41F4000121F07F4118BF494292EA75
:10075000030F3FD0A2F1010241FA03FC10EB0C00A1
:10076000C3F1200301FA03F100F0004302D549422E
:1007700060EB4000B0F5000F13D3B0F1807F06D3DB
:1007800040084FEA310102F10102FE2A51D2B1F1D3
:10079000004F40EBC25008BF20F0010040EA0300C8
:1007A0007047490040EB0000013A28BFB0F5000F48
:1007B000EDD2B0FA80FCACF1080CB2EB0C0200FAFE
:1007C0000CF0AABF00EBC25052421843BCBFD0404D
:1007D0001843704792F0000F81F4000106BF80F4C7
:1007E00000000132013BB5E74FEA41037FEA226C8A
:1007F00018BF7FEA236C21D092EA030F04D092F055
:10080000000F08BF0846704790EA010F1CBF002088
:10081000704712F07F4F04D1400028BF40F00040E5
:10082000704712F100723CBF00F50000704700F005
:10083000004343F0FE4040F4000070477FEA22622C
:1008400016BF08467FEA23630146420206BF5FEAFD
:10085000412390EA010F40F4800070474FF00003FD
:1008600004E000BF10F0004348BF40425FEA000CC4
:1008700008BF704743F0964301464FF000001CE06C
:1008800050EA010208BF70474FF000030AE000BFC2
:1008900050EA010208BF704711F0004302D5404200
:1008A00061EB41015FEA010C02BF84460146002072
:1008B00043F0B64308BFA3F18053A3F50003BCFA8D
:1008C0008CF2083AA3EBC25310DB01FA02FC63443A
:1008D00000FA02FCC2F12002BCF1004F20FA02F241
:1008E00043EB020008BF20F00100704702F1200234
:1008F00001FA02FCC2F1200250EA4C0021FA02F295
:1009000043EB020008BF20EADC70704753B94AB9D4
:10091000002908BF00281CBF4FF0FF314FF0FF3007
:1009200000F00CB8ADF1080C6DE904CE10F0E8FD54
:10093000DDF804E0DDE9022304B07047704700BF32
:10094000034613F8012B002AFBD1181A013870470F
:10095000704700BF704700BFFEE700BF70B5134D82
:1009600005F1800455E90301884255F8102C0DD299
:10097000043A034652F8046F43F8046B8B42F9D3F0
:100980000139091A21F003010430084455F8042CF8
:10099000824207D9013A121A22F0030204320021DE
:1009A00010F044FF1035A542DCD170BDE8180108F5
:1009B000FEE700BFFEE700BF38B5194D00F004F9AF
:1009C00000F080F817498022284600F0EBF9164B1A
:1009D000164A45F8180C01210024017502619C603B
:1009E000D968134A4FF6FF0001400A43DA60D3F892
:1009F000FC20104942F08072C3F8FC200A6842F0E3
:100A000001020A6010202022D87783F8222084F384
:100A1000118862B60848BDE8384000F0E3B900BF6D
:100A2000580500205819010800ED00E000010020E1
:100A30000003FA05001000E02828010872B6014BF7
:100A40005862FEE7300500202DE9F0471C4D4FF0BD
:100A500080486C69D8F82400296AA368421A934236
:100A600005F114061ED800274FF020090DE087F38A
:100A700011882069D04789F311886C69D8F824005F
:100A8000296AA368421A93420CD82268D4F80CA0B1
:100A90000B44B2422B6256606A61E760E7D100F016
:100AA00093FAE4E7B44209D00B441B1ABDE8F047BF
:100AB000022B2CBFC018023000F08CBABDE8F087C2
:100AC00030050020054A13464FF0FF3043F8142943
:100AD0000021C3E906201962704700BF44050020C9
:100AE00070B51C4E4FF080440229646AC0E90323AC
:100AF000324638BF022152F8143F9342054601EBBB
:100B000004001DD0346A9A68041BA24213D8944290
:100B100004D91B68A41A9A68A242FAD35A68C5E994
:100B2000003215605D60AC609A684FF0FF31121BB7
:100B30009A60F16170BD00F04DFA73699A68E6E75A
:100B4000C6E905553462C5E90033A960BDE87040C7
:100B500000F032BA300500201A4A03685169814218
:100B600010B40ED041681432002493420B605960D7
:100B7000C46003D09A6881680A449A605DF8044BA7
:100B800070471046002440F8143F83425860CC6000
:100B900014D0986889684FF0804401449960606A75
:100BA000136AC21A9142E9D91B1A0B445DF8044B2F
:100BB000022B2CBFC018023000F00CBA5DF8044BB9
:100BC00000F002BA30050020024B0022C3E90033D6
:100BD0009A6070473005002000228168054B02753D
:100BE0001B689A688A42FBD25A68C0E900321060DA
:100BF000586070473005002008B5202383F3118822
:100C0000037D032B10D0042B09D02BB14FF0FF3301
:100C10008361FFF7E1FF002383F3118808BDD0E96A
:100C2000003213605A60F1E7836900221A60EDE731
:100C300000228168054B02751B689A688A42FBD8BE
:100C40005A68C0E9003210605860704730050020D3
:100C500038B5104C2569236828751A68226001216F
:100C6000546023611975EFF309822969643A91424E
:100C700005D829461846BDE83840FFF715BB064899
:100C8000FFF7DCFE236929461846BDE83840FFF728
:100C90000BBB00BF300500206819010830B54B1CA4
:100CA00087B012D00C4D0D4A2B69044601A8FFF7FE
:100CB00017FF2046FFF7CCFF049B13B101A8FFF7F5
:100CC0004BFF2B69986907B030BD034DFFF7C0FF9C
:100CD0002B69986907B030BD30050020F90B00087A
:100CE00070B5144E8161336981689A68914203D866
:100CF000BDE87040FFF770BF04461846FFF76CFF71
:100D00000123054634612375EFF309830269643BCF
:100D10009A4205D829462046BDE87040FFF7C4BA7C
:100D20000548FFF78BFE29462046BDE87040FFF7D7
:100D3000BBBA00BF3005002068190108044B1A68CF
:100D40001B6990689B68984294BF002001207047FF
:100D50003005002038B5104C236820691A682260DD
:100D60000121546019752361FFF762FF0546EFF317
:100D700009830269643B9A4205D820692946BDE887
:100D80003840FFF791BA0548FFF758FE2069294619
:100D9000BDE83840FFF788BA30050020681901081F
:100DA000FFF7D8BF022182608182704730B4D0E95A
:100DB0000113026943F8442CA3F18405022243E99C
:100DC0000551074C4569C16823F80C2C43F8405C79
:100DD00043F8244CA3F1200030BC43F8181C7047A2
:100DE000C102000810B504464068A268904203D2D0
:100DF000121A552110F01AFD202383F31188204682
:100E0000FFF7D4FF00210446FFF76AFF002383F3B6
:100E10001188204610BD00BFF8B51F464318984200
:100E200005460C46164603D20A46552110F0FEFC34
:100E3000202383F31188203C2C44A4F164030699F9
:100E40000A4AE360022344F8201CA38244F8247C6D
:100E5000256144F8042CA66000212046FFF740FFDE
:100E6000002383F311882046F8BD00BFC1020008AB
:100E7000034B1B6902469A610F20FFF7E9BE00BFD2
:100E800030050020202383F31188FFF7F1BF00BF56
:100E900008B50146202383F311880820FFF7FEFEE2
:100EA000002383F3118808BD69B1084A10B41269A0
:100EB00044680346C2E90034042022605DF8044B14
:100EC0005A60FFF7EBBE4FF0FF307047300500204F
:100ED00003460068834205D002681A60536081614E
:100EE000FFF77ABE704700BF38B5044600688442F9
:100EF00009D00D46036823605C608561FFF76CFED6
:100F000020688442F6D138BD80B4094A536B23F07F
:100F1000010300AF5363EFF30983683383F3098858
:100F2000002383F31188BD465DF8047B704700BF42
:100F300000EF00E098B5202300AF83F31188114B38
:100F40005B6813F4006302D183F3118898BDF1EE5E
:100F5000103AEFF309840C4B4FF08072DB6B44F8CE
:100F6000083C44F84C2CA4F1680383F30988FFF78C
:100F7000E5FE18B1054B44F8503C98BD044B44F8CD
:100F8000503C98BD00ED00E000EF00E0D102000809
:100F9000D402000808B500F0C5FE00F0EDFA00F03C
:100FA00097FC00F07DFB01F049FABDE8084000F035
:100FB00001B800BF00F032BF4FF080430021022291
:100FC00058631961DA6070474FF080430022DA609D
:100FD000704700BF4FF0804358637047C36810B438
:100FE00044691960816982680B44A342C36002F1BD
:100FF000010228BF036A5DF8044B826028BFC3600A
:10100000704700BF043210B4C0E90731826103FBAE
:1010100002120023019C8360C0E90933029BC46271
:10102000C0E90000C0E903115DF8044B42610363AD
:10103000704700BF016A0022C0E90311C0E909221C
:1010400082606FF00101FFF74FBF00BF08B5FFF7E7
:10105000C5FFBDE808400021FFF73ABF836810B51F
:1010600004463BB123691A6804331A44C4E90932BF
:10107000002010BDFFF718FF0028F3D010BD00BFFF
:10108000D0E9043110B48469826823448B4203613F
:1010900024BF036A0361013AC36A8260002242628C
:1010A00013B15DF8044B18475DF8044B704700BF5F
:1010B00070B52023054683F31188446A74B114F88F
:1010C000016BAA6A6C62944204D2002383F31188F4
:1010D000304670BD2846FFF7D3FFF6E7FFF7BEFFA7
:1010E000064608B96C6AEAE784F31188F0E700BFA6
:1010F0002DE9F843984605460F461646202383F30C
:1011000011884FF0000916E0AC6AA6EB0903641AD7
:101110009C4228BF1C462246384610F0A3FBD5E966
:101120000903204498426862A144284601D3FFF78E
:10113000A7FF4E4509D9696A0029E5D141462846ED
:10114000FFF78CFF08B9696ADEE7002383F3118893
:101150004846BDE8F88300BFD0E90332934201D08E
:10116000181D70478268002AFAD00020704700BF1F
:10117000836823B1006950F8043B0B607047184640
:10118000704700BFD0E9043110B4846982682344F9
:101190008B42036102F1FF3228BF036A5DF8044B02
:1011A000826028BF03610021FFF792BED0E90332BD
:1011B000934210B5044606D0A1691A1D0B44C4E938
:1011C0000923002010BD8268002AF5D0FFF76CFECD
:1011D0000028F7D1E368EFE710B5FFF7FFFEC36A19
:1011E0000022426213B1BDE81040184710BD00BF95
:1011F00070B5202304460D4683F31188466A86B1F4
:101200003570D4E9093201339342636203D200207E
:1012100080F3118870BDA16920460439FFF7DCFF17
:10122000F5E71146FFF7C2FF08B9666AE8E786F3FB
:10123000118870BD2DE9F843994605468846174642
:10124000202383F31188002618E0AC6ABB1B241A04
:101250009C4228BF1C46224608EB060110F002FB08
:10126000D5E90932234493426B622644284603D3CE
:10127000A9690439FFF7B0FFB74209D9686A0028A5
:10128000E3D149462846FFF791FF08B9686ADCE7D1
:10129000002383F311883046BDE8F88338B58568AC
:1012A00045B9416A044629B1C3680439C91A03D152
:1012B000084638BD002038BDFFF790FE012065626A
:1012C00038BD00BF034610B41969C069DC68013934
:1012D00019615969421CDA618A4228BF0022205CE8
:1012E000DA615DF8044B7047036982690133036179
:1012F000531C8361C3689954D0E90523934228BFE6
:1013000000238361704700BF10B40024C0E90314B8
:10131000C0E90644C0E900005DF8044B4261836007
:10132000704700BF08B5D0E904239A4206D2FFF700
:10133000DBFF0021FFF7CCFD002008BD4FF0FF30A0
:1013400008BD00BF38B50446202383F31188036924
:1013500063B12046FFF7B6FFA36805460BB12046F0
:101360009847002383F31188284638BDFFF79CFD7A
:1013700005460028EDD0002383F31188284638BDA8
:101380002DE9F04F83B00446019388461746202389
:1013900083F311884FF0000A10E02A46184610F037
:1013A00061FAE6692E442369E6615B1B2361AA4466
:1013B000A3680BB120469847574529D9236903B341
:1013C000A7EB0A059D4228BF1D46002DF0D0012D38
:1013D00008EB0A0323D0E669D4F814B0E168ABEB5C
:1013E00006094D453144D8D34A46184610F03AFA1A
:1013F000A6EB0B062E44E1684844324610F032FA60
:10140000D1E701992046FFF74FFD08B92369D7E7D7
:10141000002383F31188504603B0BDE8F08F2046C7
:10142000FFF750FF08F80A000AF1010AC0E700BF01
:1014300038B504460D46202383F31188D0E9041300
:1014400099420BD229462046FFF74EFFA36803B10D
:1014500098470020002383F3118838BD1146FFF719
:1014600023FD0028EED0002383F3118838BD00BF90
:10147000036910B553B10446FFF724FF002103466A
:1014800020461C46FFF724FD204610BD4FF0FF34D8
:10149000FAE700BF2DE9F04F83B005460193884677
:1014A000202383F31188002691460FE0224610F096
:1014B000D9F9AF6927442B69AF6123442B612644D6
:1014C000AB680BB128469847B1452ED9D5E904370A
:1014D000BB4222D2A9EB0604FB1A9C4228BF1C4641
:1014E000002CEDD0012C08EB060125D0D5F818B062
:1014F000E868A7EB0B0A54455844D7D352460091ED
:10150000ABEB070B10F0AEF90099E8680BEB0407A2
:101510003A46514410F0A6F9CDE701992846FFF765
:10152000C3FC10B9D5E90437D4E7002383F311884D
:10153000304603B0BDE8F08F18F806102846FFF7D4
:10154000D3FE0136BCE700BF4FF0FF310830FFF794
:10155000F9BE00BF4FF0FF322830FFF769BF00BF70
:101560004FF0FF330830FFF70BBF00BF4FF0FF33E2
:101570002830FFF78FBF00BF00F0B6BC70B504463F
:101580000B460B48206001211546217104F108002B
:1015900004F148014022FFF7B7FE2B4604F1880111
:1015A00004F128004022BDE87040FFF7ADBE00BF47
:1015B0004028010810B5046BD4F83C211368197851
:1015C000042982B002D12179022901D002B010BDD4
:1015D00010791989012202FA00F30B42F6D101A910
:1015E00004F13C00FFF7C4FD02460028EED0D4F819
:1015F0003C01019B0179006800F0BAF9E6E700BF01
:101600004FF0FF310830FFF753BD00BFD0F83C3139
:101610001B681B78042B04D14FF0FF323C30FFF7DE
:10162000E7BD6FF0010070474FF0FF330830FFF760
:101630005FBD00BFD0F83C311B681B78042B01D084
:10164000002070474FF0FF333C30FFF7F3BD00BF81
:10165000D0F83C211368197804291CD110B5017900
:101660000229044600D010BD50795989012202FA9E
:1016700000F30B42F7D104F10800FFF76DFD0246BD
:101680000028F0D0D4F83C01402341790068BDE83F
:10169000104000F057B97047006BFFF7D9BF00BF8B
:1016A000704700BF10B50E4A0E4982B001230446B0
:1016B0000160037100F17001CDE900204022083083
:1016C000FFF7A0FC084A0223CDE9002404F1B4018D
:1016D000402204F13C00FFF795FC02B010BD00BFB2
:1016E0009916000860280108B51500080B6820222B
:1016F00082F311880A7903EB820290624A791132EF
:1017000043F822008A7912B103EB82039862022324
:101710000371C0F83C11002383F31188704700BFA8
:1017200010B504460830FFF785FC04F13C00BDE825
:101730001040FFF77FBC00BF10B504460830FFF72C
:1017400079FC04F13C00FFF775FC2046BDE8104031
:10175000FFF77EBF90F8743003F06003202B01D0B8
:101760000020704790F87530212B07D81F2BF7D930
:10177000054A0723C0E91A2301207047222BEFD125
:101780000023C0E91A33F7E700030020D0F83C211A
:1017900013681978042907D130B50179022983B07B
:1017A000044602D003B030BD704710791989012278
:1017B00002FA00F30B42F5D104F13C052846FFF78D
:1017C0006DFD0028EED001A92846FFF7D1FC0246A6
:1017D000D4F83C01019B0179006800F0C9F8E1E709
:1017E000F0B500EB810383B09E6ACEB104460D468E
:1017F000202383F3118800EB81073C36FB685B698B
:101800001B68DBB901A93046FFF7B2FC024648B1BC
:10181000019B2946204600F0ABF8002383F3118892
:1018200003B0F0BDFB6859691B8A09689942F4D17D
:1018300003462946204600F09BF8EEE73046FFF7C6
:10184000A1FCDFE7113110B550F8214094B12023FD
:1018500083F31188D4F83C211368527903EB820397
:10186000DB689B69596831B92046FFF7F1FE002318
:1018700083F3118810BD04F10800FFF7E7FBF3E7DD
:10188000704700BF10B50021044600F083FD002121
:10189000204600F06DFD63681B6813B105212046EA
:1018A0009847062384F8643010BD00BF10B5B0F827
:1018B000763080F87E30044600F05CFB63681B687D
:1018C00013B10121204698470323237010BD00BFA8
:1018D00000F024BB38B500250446012303704560A1
:1018E000382229462C300FF0A1FFA56038BD00BF7B
:1018F00010B50B460446202282F311880021436074
:101900000C300FF093FF204600F00EFB0222002364
:10191000227083F3118810BD536900EB810CCCF861
:101920000C203BB14FF0000CC3F800C0C3F804C05A
:10193000C3F808C093691BB100221A605A609A600C
:1019400000F022BB70B500EB81054689ED684FF0D1
:10195000010EAD690EFA01FE4EEA060EA0F80AE08D
:10196000AA600022C5E90032BDE8704000F0C0BBAB
:1019700070B500EB81050689ED684FF0010E6D69C9
:101980000EFA01FE4EEA060EA0F808E0AA60002258
:10199000C5E90032BDE8704000F0BCBB70B5022361
:1019A000044600250370C5678560202229460C3057
:1019B0000FF03CFF84F86450204600F03BFB636866
:1019C0001B6823B129462046BDE87040184770BD0A
:1019D00042680521017013680BB103211847704755
:1019E000426804210170136803B11847704700BFB3
:1019F00038B50446002580F8645000F1740200F008
:101A000053FB636825679B68EBB120469847D0B1CC
:101A1000E26EB4F87A30934238BFE366202383F352
:101A2000118894F97420E36E002A23DB7BB3A26E45
:101A300000212046FFF786FF042384F8643000234A
:101A400083F3118838BD94F8743013F0600F2BD1F4
:101A500003F01F03012B94F8752024D0022B34D0FF
:101A600013BB092A20D8DFE802F08A6D1F6D1FB969
:101A7000A71FA190EBB1A26E00212046FFF778FFCF
:101A8000012384F86430002383F3118838BD1A469B
:101A900019462046FFF76CFF052384F864300023C5
:101AA00083F3118838BDAAB32046BDE83840FFF75C
:101AB000E9BE1A4619462046FFF744FF032384F87F
:101AC0006430002383F3118838BDB4F8783003F014
:101AD0000F0103F080030C2AE6D801A050F822F091
:101AE000631B0008211B0008A91A0008211B00081D
:101AF000A91A0008A91A0008A91A0008A91A0008BA
:101B0000A91A0008A91A0008A91A0008A91A0008A9
:101B1000151B00083D4A0223C4E91A23022278E774
:101B2000B4F876000028BFD10029BDD0012AC9B27F
:101B3000204661D0002B63D000F02CFC0023C4E9C8
:101B40001A336BE7B4F87630012BADD1B4F87C30A2
:101B5000032A14BF23F0020343F00203A4F87C30ED
:101B6000ECE7C9B22046002B3ED000F08FFA0128E6
:101B70003DD0022898D1264BC4E91A30CEE704F1B3
:101B80007C020223C4E91A23C8E794F8763062681D
:101B900084F87F30002B0CBF0321042121701368CF
:101BA000002BCBD0022120469847C7E7012204F141
:101BB0007F03C4E91A322CE7B4F876106268B4F8EF
:101BC000783055682046CAB2090AA84700283FF471
:101BD0006BAFD0E90023C4E91A321AE70D4A226735
:101BE0000023C4E91A3319E700F042FABFE70A4AB2
:101BF0000223C4E91A2391E72BB100F0F5FB9DE71E
:101C000000F0B6FB9AE700F0D7FB97E788280108B9
:101C100084280108AD1800088028010838B590F81C
:101C200064300446062B19D8DFE803F019040919BB
:101C3000191D1900C56EB0F87A2095421AD32023D9
:101C400083F3118800231A4619462046FFF77AFECF
:101C5000002383F31188032384F8643038BDBDE882
:101C60003840FFF70FBE036F03B19847002384F895
:101C7000643038BDC268128AB5FBF2F102FB11551F
:101C8000002DDCD1202383F311882B462A462946D8
:101C9000FFF76EFE85F31188022384F8643038BDA7
:101CA00090F8643010B50446062B13D8DFE803F033
:101CB0001313131704131300202383F31188002335
:101CC0001A461946FFF754FE002383F311880523B3
:101CD00084F8643010BDBDE81040FFF7D3BDC36881
:101CE0009B695B68002BF5D1036F03B19847002314
:101CF00084F8643010BD00BF43099B0000F1604CC4
:101D000003F1604303F5614309010CF5614C00F0F8
:101D10001F0001228240C9B28CF80013C3F8802151
:101D20001A6070470D4B4FF0FF310022986A99629C
:101D30009A62186919611A61D868D960DA60DA693B
:101D4000074942F08052DA619A6942F001029A61D1
:101D50000B6843F020030B60704700BF0010024087
:101D6000000001401F4A136843F001031360136829
:101D70009807FCD553681B4923F00303536053684D
:101D800053604B6813F00C03FBD10868154A00F050
:101D9000F90008604B600B6843F480330B601368F4
:101DA0009903FCD542F2101130230F485060D162E4
:101DB000136313680B4943F0807313600B689B0136
:101DC000FCD50A4B12221A604B68064A43F0020304
:101DD0004B60536803F00C03082BFAD1136B1363A9
:101DE000704700BF0010024000041D0700200240A1
:101DF0004FF080431A69920701D4FFF79BB810B5E2
:101E000000241C61202383F31188FEF71DFE84F358
:101E10001188BDE81040FFF78DB800BF0F4910488A
:101E2000CA6942F0010230B4CA6181684FF0804350
:101E300040F2CF2441F00101816000229C624FF00A
:101E4000FF350124DD6202219A611C205A63DA60A9
:101E50005A605C611C6030BCFFF74EBF001002404E
:101E6000002004E0024A136843F0800313607047C7
:101E70000038014070B51A4BD3F8C8402668E569B0
:101E800082B02022256282F31188AA0609D5083380
:101E90000193A18C0198C9B2FFF744FAE569AB063A
:101EA000F7D4300610D4720604D56B0644BF26F072
:101EB00040062660002383F3118802B0BDE870401D
:101EC000FFF738B82085E5692906ECD50548FFF706
:101ED000CFFA002880B2F5DA26F080032360E2E72B
:101EE000740500209C05002010B5084A0848084CDD
:101EF0000021FFF743FB074A074B0221C4E93223C5
:101F00002520BDE81040FFF7F7BE00BF651E0008A2
:101F1000740500200038014000A24A040148FFF780
:101F2000D9BC00BF5006002038B50378012B00D083
:101F300038BD0D4A9042044604D02046BDE83840E2
:101F4000FFF72CBD09490A4DCA6942F40002CA6173
:101F50004A202B640D21FFF7CFFE03214B20FFF712
:101F6000CBFE00232B64E8E750060020001002405F
:101F7000005C004090F87E30024A43F08003D36456
:101F8000704700BF005C004000EB8103F0B5DC68E7
:101F9000274A2368126D656903F00303032B18BFFA
:101FA000B3FA83F302F1804218BF5B0902F5C04225
:101FB00014BF5B024FF4C0634FEA011E02EB011C29
:101FC0007DB1258AD0F88060013525F001053544C2
:101FD0000027CCF80470C0F880504EF8026043F03F
:101FE0002003A26992B1628A3E2A19D801325408AC
:101FF000A402CCF80C40D0F8804022F00102224428
:10200000C0F8802043F40053CCF808408A0002F165
:10201000804202F5B8420B43116811601360F0BDB5
:10202000541EC4F34F1444F020040132E0E700BF13
:10203000005C00400C4A10B40021802411655164FA
:10204000D4644468E4688C4214BF4FF41E444FF4D7
:102050001C4414644024054AC0F88040C2605DF806
:10206000044BFFF791BF00BF005C00408C280108C3
:10207000054B53F8210010F4405004D0B0F5805FB8
:102080000CBF012002207047005C0040054B53F854
:10209000210010F0300003D010280CBF01200220D6
:1020A000704700BF005C0040104B1B6D03F1804384
:1020B00003F5C04303EB011310B49B6803F1005315
:1020C00003F540535B0000201C68014664F30F00D9
:1020D0005C6864F31F40D3E9024364F30F0163F3C8
:1020E0001F415DF8044B106051607047005C004078
:1020F000074A52F8213023F4904323F0700383F40D
:10210000405343F4004343F0800342F821307047CA
:10211000005C004000EB810070B4C3681D4A5D693B
:10212000106D1B8AD5E9004600F18040A41B9C423B
:1021300000F5C0404FEA011228BF1C461258AB6898
:1021400000EB011004F1010C5FEA5C0C44600DD05F
:1021500002F1005202F540523344520003EB4C0CA2
:1021600033F8020B42F8040B6345F9D1094A52F8DF
:10217000213023F4F04323F0400383F0300343F491
:102180000043344443F080036C6070BC42F821305B
:10219000704700BF005C00402DE9F04F714B5C6C54
:1021A000E243610587B05A6400F1C480220500F162
:1021B000C780E30404D56B4B9A6C170440F1C980C7
:1021C000A60507D5DFF8A4B1DBF80430DB680BB156
:1021D0005846984725043ED5DFF890B1624FDFF8A6
:1021E00084A11AE070691968D0E90004394041F40B
:1021F00000418442196033D3BBF80830B468012130
:10220000914023EA0103ABF8083014B15748114656
:10221000A047DAF8444023041DD504F00F029300D0
:1022200003F1804302F1020C03F5B8430BEB8C0180
:10223000E4061D684E68D5D51868384040F0800027
:1022400018602805D1B210D5736848489847DAF865
:1022500044402304E1D407B0BDE8F04FFEF76ABE66
:1022600042481146FFF756FFD3E7DAF85000D6F898
:1022700018E000F1804000F5C04000EB02108468D7
:10228000D0F80C8004F1005000F540504400DEF816
:10229000040001900546DEF80800059428440290E9
:1022A000C8F34805C8F3090003905DB10298049291
:1022B000023800EB450954F8042B20F8022F814521
:1022C000F9D1049A18F0010F08D00598029C50F833
:1022D000250004F81500DEF8040001900198039D24
:1022E000DEF800402844A042CEF8040002D2708AF2
:1022F000A84212D90BEB8C0C0120DCF80430DC680E
:10230000BBF80A30904023EA0003ABF80A30002CF7
:102310003FF47FAF1548A0477BE71A6822F490424C
:1023200022F0700282F4405242F4004242F08002F5
:102330001A606EE70D48FFF731FB22057FF539AFD4
:10234000084A0A48136C43F008031364FFF740FB84
:102350002FE71A6C054822F008021A64FFF740FBC9
:102360002EE700BF005C00400F07FFFF5006002073
:10237000074A52F8213023F4904323F0700383F48A
:10238000805343F4004343F0800342F82130704708
:10239000005C0040074A52F8213023F4F04323F058
:1023A000400383F0100343F4004343F0800342F8FA
:1023B00021307047005C0040890001F1804101F547
:1023C000B8410B6803F44053B3F5405F0BD00B6882
:1023D00023F4904323F0700383F4005343F4004349
:1023E00043F080030B607047890001F1804101F5E3
:1023F000B8410B6803F03003302B0BD00B6823F48B
:10240000F04323F0400383F0200343F4004343F000
:1024100080030B60704700BF80B4064B00AFD3F859
:10242000002882F30888D3F80438BD465DF8047BA1
:10243000184700BF00D0FF1FFFF794BC014B1122CB
:102440001A60704700200240F0B5B1FBF2FE02FBBB
:102450001E14092C8CBF3725302555FA84F400F161
:102460000B06847200F10A0C3BB3013B25D0BEFB86
:10247000F2F702FB17E5ECB2092D04F1300504F187
:10248000370494BF0CF8015D0CF8014D013B714617
:10249000BE46ECD18A42714612D8BEFBF2F502FB71
:1024A00015E4E3B2092C03F1370403F130038CBFC8
:1024B0000CF8014D0CF8013DAE468A427146ECD94C
:1024C000431EA6EB0C011CF8012B03F8012F6645F7
:1024D000F9D10844F0BD00BF092970B5FCEEC07AFF
:1024E0000E461B4BA8BF0926B8EE677A53F8263074
:1024F00030EE470A07EE103AF8EE476AB6EE007A79
:10250000A0EE267A0D46BCEEC77A17EE104AA3421B
:1025100005D8E41A17EE903A013307EE903A17EE19
:10252000901A00230A22FFF78FFF7DB1094A928A91
:1025300012F0400F0CBF2E222C2200F8012B334644
:1025400021460A22BDE87040FFF77EBF70BD00BF84
:10255000D0280108180300200389012B06D94368FD
:102560005A1C426019700389013B038100207047A7
:102570002DE9F04F2DED028B0C468BB014F8011BAA
:10258000002900F09C8291460023202206469346B3
:102590009A460AE0336830469B6898470AF1010A78
:1025A00014F8011B002900F089802529F2D1234667
:1025B0004FF000081C4613F8012B302A6BD81F2A55
:1025C0000DD9203A102A0AD8DFE802F07209090969
:1025D000090909090909096F096C09095E00002543
:1025E00005E051F8042BD2B2894602EB400514F8FD
:1025F000013BA3F13002D2B2092A494605EB85001E
:10260000F3D92A2BEDD02E2B00F0728148F0400830
:102610000027A3F14402342A57D8DFE812F09200D1
:102620005600A10056005600920056005600560073
:1026300056005600870156005600560056005600B8
:10264000C10056005600850156005600560056003F
:10265000560056005600560056005600D80092000C
:102660005600A10056005600920056005600560033
:10267000560056008701560024015600E900560016
:10268000C1005600560085011C4613F8012B302A64
:1026900048F0100893D9622A0DD06A2A9FD148F0D9
:1026A000800887E748F0020884E748F0040881E7DB
:1026B00048F020087EE748F480787BE753461846C8
:1026C0000BB0BDEC028BBDE8F08F8DF810300DF132
:1026D00011070123EB1A70D418F0100F00F01D81C0
:1026E00018F0020F00F0CD814FF0300B04A9B94271
:1026F00019D201940D46344688461E46226815F8C4
:10270000011B926820469047BD42F7D333462646C8
:10271000019C41467A1E521A01318F4238BF002275
:102720000AF1010A9244002B3FF43AAF1D461F46BE
:10273000336859469B6830469847013DF8D1BA4402
:102740002EE759F8041B0029C0F2348118F0040F59
:1027500040F0D98118F0200F00F0EC812023D3E164
:1027600018F4807F40F0E48009F1070929F0070997
:10277000F9E802010193FDF76BFF08EE100AB5EED0
:10278000C08AF1EE10FA019B00F1DA8018F0040F14
:1027900040F0C18118F0200F00F0C9812022BBE178
:1027A0000A2204A8002359F8041B0190FFF74CFEED
:1027B000019BC31AEB1A07468ED518F0020300F0EE
:1027C000688104A98F4288BF002392D8E8E659F8AF
:1027D000043B8DF810306B1E00F1DC8018F0020F06
:1027E00000F007824FF0200B0DF1110704A980E7DC
:1027F00059F8041B002900F0F5800B7818F0400F01
:1028000047F6FF7218BF1746002B00F023824A1EBE
:102810003A440F4602E017F8013F13B1D31B002BD7
:10282000F9DA7B1AEB1ACDD428F0100818F0020F51
:1028300077D11D464FF0200B002BC3D00194A84642
:1028400034460E4622685946926820469047B8F1B1
:102850000108F7D13146B94226464346019CAA44B5
:10286000FFF447AF9CE6494651F8042B002F00F0D7
:102870008C800E2FA8BF0E27B9464FF0010CAF4B2E
:10288000A3FB0230C00800EB8003A2EB430330330C
:10289000DBB2092A8DF81D3040F2C7810023CDE953
:1028A000014544F6241E0DF11D020DF11E071D46C3
:1028B00019E04FF0200307F8023C0135023F9F4B1F
:1028C000A3FB0034E40804EB8403A0EB43033033A0
:1028D000DBB2092807F8013C4FEA5E0E07F1FF3230
:1028E00040F2888020461EF0010FE2D11746E6E74D
:1028F000002705E051F8042BD2B2894602EB4007CD
:1029000014F8013BA3F13002D2B2092A494607EB81
:102910008700F3D92A2BEDD07BE604A918F0020F2B
:1029200087D04FF0200BE2E610223AE7082238E782
:10293000B9EC018AB5EEC08AF1EE10FA7FF526AF48
:102940002D228DF8102004AA48F00808B1EE488A1C
:102950000DF11100019218F0800F1CBF6A2200F8DF
:10296000012BCDE902030EF0C5FDB4EE480AF1EEED
:1029700010FADDE9020340F0A980074642F219038C
:1029800027F8023B019BFB1AA4E64FF0030C4FF023
:102990000E0974E718F0020300F0438133689DF8D4
:1029A00010109B68304604AD98470DF11107294679
:1029B0000023AFE62D238DF8103004AB48F0080853
:1029C00049420DF11100019318F0800F1CBF6A23DA
:1029D00000F8013B0A220023FFF736FD019B074662
:1029E000C31A77E618F0400F55493FF410AF47F689
:1029F000FF770CE70DF11E002F46A0EB020E5148A9
:102A0000019C029DC05D04AFCDE902450197BE4423
:102A100006E02A467CB107F8013B774515D01378CC
:102A2000202B02F101050CF00104F2D1FCB10CF0F5
:102A3000FE0C2A462E23B9F1000F09F1FF345CDBAE
:102A400007F8013B7745A146E9D1DDE902450CF0E5
:102A5000020CBCF1000F04D020281CBF202307F873
:102A6000013B07F8010B019B8946FB1A32E6BCF1DA
:102A7000000F02D153780232DDE72A464FF0020CF4
:102A8000D9E718F02C0F3BD11D464FF0300B04A9AD
:102A9000D2E618F02C0F3FF494AE18F0100F3FF46C
:102AA00090AE32689DF810109268019330469047BE
:102AB000019B0AF1010A1D460DF11101BCE60B460E
:102AC00018460BB0BDEC028BBDE8F08F18F0400F3C
:102AD00029D0462B3ED009273946B0EE480AFFF7E9
:102AE000FBFC074618F0100F40F08A8001997B1A12
:102AF000EB1A7FF513AF019964E6DDE90245A8E71B
:102B00004FF0300BCDE72B238DF8103004AB0DF1D7
:102B10001100019358E72B228DF8102004AA0DF123
:102B20001100019217E7462BD6D13BB214E004A85E
:102B3000019010E704A8019046E700BFCDCCCCCCB3
:102B400078190108C428010800007A446F12833AFA
:102B5000FF23744903273B461FED057AB4EEC78A6D
:102B6000F1EE10FA67DB5FED076A1FED077A504A56
:102B700012F8011FF0EE487A28EE268A21B1F4EE11
:102B8000C77AF1EE10FAF3DA12F8012C0AB1013F1C
:102B90003BB2FCEEC87A17EE901A632954D9023B77
:102BA0001BB223EAE371B0EE480A03920293FFF7E7
:102BB00093FC029B039A002B074614DD10F8011CBE
:102BC000302905D1431E1F4613F8011D3029FAD0C4
:102BD000384B9B8A13F0400F0CBF2E232C239942B5
:102BE00008BF07F1FF37002A3FF47CAF07F8012B3D
:102BF00078E71D464FF0200B0DF1110704A91BE6E5
:102C000017F8012C302A88F0100805D17B1E1F46CA
:102C100013F8012D302AFAD02E2A08BF07F1FF370A
:102C200064E70DF1110704A963E54FF0010E2020C0
:102C30000DF11D02E7E6F7EE007AB4EEE78AF1EE59
:102C400010FA11D40022A4E7092984BF03F1FF334D
:102C50001BB2A6E7002DFFF6A3AC18F0020F1ED0A2
:102C60002B464FF0200B5EE5DFED136A134911F898
:102C7000012FF0EE487A28EE078A3AB1F4EEE67AB0
:102C8000F1EE10FAF3D411F8012C7FE79FED0C7AE6
:102C9000F4EEC77AF1EE10FA7FF77BAFF3E74FF06F
:102CA000200B002D3FF47CAC0F464FF0200BC5E508
:102CB000C5280108180300206F12833AB8280108BC
:102CC000BD3786350CB410B50C1E84B015DD0E4B27
:102CD0000699ADF80C40CDE9013007AA01A8009291
:102CE000FFF746FC029B002284421A7000DC601E43
:102CF00004B0BDE8104002B07047002004B0BDE849
:102D0000104002B0704700BFA828010801380A44EB
:102D100011F8013B00F8013F9142F9D170470000E2
:102D2000024400F8011B9042FBD1704710B50346E6
:102D3000024413F8010B11F8014B9342A0EB04007D
:102D400001D00028F5D010BDC3690239023B8B4287
:102D500083BF4389006B01FB030000207047000024
:102D6000034600F10B010020C20142EA500213F8B1
:102D7000010B50FA82F28B42D0B2F5D170470000BD
:102D800010B5427804460132002052010346022B5E
:102D900008BF0423C10341EA5001E05C013310FA8B
:102DA00081F19A4288B2F2D810BD000003685A1C23
:102DB00002601878A0F16103192B01D82038704700
:102DC0007F2803D9024B034413F8800C704700BFDF
:102DD000382D0108F0B585B00546019114461E4610
:102DE000E3B23BB101A8FFF7E1FF08B9002042E0E0
:102DF000013CF5E72B7893B98CB101203BE0039FB0
:102E00000290731E3946FFF7E5FF0028F5D13978A7
:102E100001A8FFF7CBFF002CE8D00029E6D0019BEA
:102E200002950393029802783F2A01D02A2A15D1ED
:102E3000002EDBD001303F2A03464FF0000204D1C0
:102E4000013204E02A29DAD1184642F4807201786E
:102E50003F2903F10103F5D11846F1E702A8FFF776
:102E6000A5FF074603A8FFF7A1FF87420146CFD180
:102E7000002FD7D1C1E705B0F0BD000003687BB1DA
:102E80001A4612F8011B1F2908D93A29F9D11978D5
:102E9000302905D102339A4202D1026000207047E6
:102EA0004FF0FF307047000038B50D4610B90920CB
:102EB000002311E003680446002BF8D01A78002A9A
:102EC000F5D08188DA889142F1D158780DF062FB13
:102ED00010F00100EBD123682B6038BD38B5C37802
:102EE000CBB100F13C05826B0446012340782946B2
:102EF0000DF09EFB88B9A16BA36A226AE070CB1A21
:102F0000934208D2A378022B05D10A4460780123AA
:102F100029460DF08DFB002000E0012038BD0000A7
:102F200038B5836B8B4211D004460D46FFF7D6FFB0
:102F300068B9607801232A4604F13C010DF036FBA4
:102F400010B101204FF0FF35A56300E0002038BD2F
:102F500038B50023C3704FF0FF3383630446FFF797
:102F6000DFFF002848D1B4F83A524AF655239D4273
:102F700007D124490B2204F13C00FFF7D7FE0028BB
:102F80003CD094F83C30EB2B03D01833DBB2012B50
:102F90002BD84AF655239D4206D11B49082204F13D
:102FA0008E00FFF7C3FE60B3B4F84730B3F5007F7F
:102FB0001BD194F84930C3B15A1E1A4215D1B4F846
:102FC0004A3093B194F84C30013B012B0DD8B4F842
:102FD0004D3053B1B4F84F307F2B03D8E36DB3F5C8
:102FE000803F02D3B4F8523053B94AF65520854297
:102FF00014BF0320022004E0042002E0012000E0CE
:10300000002038BDF82801080429010802392DE9FB
:10301000F047466B01F007044FF0010A0AFA04F486
:1030200005461746984606EB1136C1F3C809E4B2C7
:10303000314628460136FFF773FF08BB05EB09014F
:1030400091F83C3003EA0402003A18BF01224245DD
:1030500015D06340013F81F83C3085F803A00FD0C4
:10306000640014F0FF04E9D109F10103B3F5007F16
:103070004FF001044FF00009DAD29946DEE7022052
:10308000BDE8F08701296FD92DE9F843C3698B4268
:1030900005460C466AD90378022B16463ED002D864
:1030A000012B04D062E0033B012B44D95EE001EB2D
:1030B0005107816A01EB5721FFF732FF08B1012068
:1030C00055E014F0010407F1010805F13C09C7F3CC
:1030D0000807F3B206D019F8072002F00F0242EAFF
:1030E0000313DBB209F80730A96A0123EB7001EB87
:1030F00058212846FFF714FF0028E0D1C8F308083C
:1031000014B1C6F3071606E019F80830C6F3032613
:1031100023F00F031E4309F8086021E0816A01EBE8
:103120001421FFF7FDFE0028C9D1640004F4FF74E8
:103130002C44A68714E0816A01EBD411FFF7F0FE5E
:103140000028BCD12B78A40004F4FE74042B2C447A
:1031500005D0E36B26F0704603F070431E43E66330
:103160000123EB70002002E0022070470220BDE83E
:10317000F8830000F8B504460F461646E36973B1BC
:10318000012BA7EB030514BFAA1C32462068691C5B
:10319000FFF778FF20B9E369013BE361EEE71846EA
:1031A000F8BD0000C379032B12D18168836970B523
:1031B0000446CD18A94207D04E1C20683246FFF7BE
:1031C00061FF20B93146F5E70023E371002070BDAF
:1031D00000207047012940F28780F8B50668F3693E
:1031E0008B420C4640F282803378013B032B7DD822
:1031F000DFE803F00229374701EB5105B16A304699
:1032000001EB5521FFF78CFE10B14FF0FF3071E05C
:103210006F1CB16AC5F30805354401EB57213046F0
:1032200095F83C50FFF77CFE0028EED1C7F3080765
:10323000374497F83C3045EA0320E3074CBF0009C8
:10324000C0F30B0056E0B16A304601EB1421FFF7E2
:1032500067FE0028D9D1640004F4FF743444A08FC1
:1032600048E0B16A304601EBD411FFF759FE00285F
:10327000CBD1A40004F4FE743444E06B20F0704021
:1032800038E0D0E9043153EA0102C57901D08268FF
:1032900002B95DBB8268022DA4EB02020DD1013B95
:1032A00041F1FF315B0A43EAC1537189B3FBF1F38A
:1032B0009A421BD81CD0601C1CE0032D02D18369EC
:1032C0009342F8D8C3699BB9B16A304601EBD41177
:1032D000FFF726FE002898D1A40004F4FE742644CB
:1032E000F06B20F0004005E001207047012001E074
:1032F0006FF00040F8BD0000F8B505682B78042B8E
:1033000014BF4FF400124FF080528A4201D80220BD
:1033100038E0CA060C46FAD18268016306465AB9FB
:10332000022B05D82B89B3EB541FF0D9E86A1AE0B9
:10333000EB6AC2710BB9F5E713466F891A467F0233
:10334000BC4211460CD33046FFF744FF431C0246F3
:1033500017D00128DBD9EB698342D8D9E41BEFE70A
:103360002846FFF7F1FCC6E90D200028CFD000EB7E
:1033700054203C35C4F308042544B063F5630020B1
:1033800000E00120F8BD000001292DE9F84305689F
:1033900001D8022077E0EB698B420C46F9D906464A
:1033A00017460AB9A14627E02B78042B02D1C3792E
:1033B000022BF7D04FF0FF3239462846FFF762FE66
:1033C0000028EFD05FE00128E3D0421C2DD02B78FD
:1033D000042B2CD1D5E90632023A934205D20133AF
:1033E000AB612B7943F001032B7108F10102A2427A
:1033F00025D1EB69A34207D921463046FFF7EAFE03
:10340000A04604460028DED12B78042B29D125E0E4
:10341000F37963BBB468BC4232D021463046FFF733
:10342000D9FE0128B5D9431C1DD101202BE0002273
:1034300041462846FFF726FE0028CBD023E02B7814
:10344000042B01D0A146D4E70023A2EB0902494690
:103450002846FFF7DBFD0028F4D014E0002FD7D179
:10346000F77100200FE001348442D4D0F9E7032B38
:10347000F7D1B368BB42F4D8B2691344BB42F0D36E
:103480000223F371EDE7BDE8F88300002DE9F04178
:1034900005460E46FFF722FD044600BB314628468E
:1034A000FFF752FC05F13C08A86307464FF4007291
:1034B00021464046FFF734FC26466B89B34204D8C8
:1034C0006C89A41B18BF012409E068780123F21954
:1034D00041460DF0ADF80028F2D10136EDE7204667
:1034E000BDE8F08138B50D4640F26231144601F076
:1034F00075FEFF2806D9012C09D9030A2B706870C4
:10350000022407E028B12CB12870012402E0002435
:1035100000E00446204638BD2DE9F8430025076841
:103520008D76836B002B00F0C3803B78042B0C4618
:1035300045D12B462E464FF040083A6992F82310A9
:10354000A94221D9B8F17F0F20D818F01F0F08BF6A
:1035500008F10208013532F8080008F102082BB919
:1035600000F5205292B2B2F5006F0BD306F11A01AA
:10357000C6F12002214440EA0340FFF7B3FF28B11F
:10358000064400200346D8E703B916B93F23A376C3
:10359000012626440023B37663733B691A7902F04F
:1035A00037012173D20658BFD3E90E019A8962818F
:1035B00044BF00200021C4E90001DB8977E0C36C2F
:1035C0000133064624D0A946A846FB68585BB8B12B
:1035D000B9F1000F05D100F520539BB2B3F5006F90
:1035E0000BD308F11A01C8F12002214440EA094036
:1035F000FFF778FF28B18044002002358146E4E7D8
:103600004046B9F1000F18BF0020231800229A7617
:10361000F16B00234D1E184615F8012F202A00F1EA
:1036200001000DD0052A08BFE522092805D10B2B82
:1036300003D8E6182E2777730133E6180133727327
:103640000B28E9D1E21800205073A27E22BB1BB1E7
:1036500004F10C0308200BE03F23A376012315E0BF
:103660002E2A13460ED0413A192A06D96B732B46DF
:103670005A785D1C002AF3D106E00A7B1042F5D08F
:103680002033F3E71020F1E71B1B0C3B23440022FF
:103690009A760B7B03B96373CB7A03F03F032373F2
:1036A000CB69236000236360CB8A63810B8B23810A
:1036B000BDE8F88338B50546002435F8020B88B11B
:1036C00001F0BCFDE30343EA5403C2B212FA83F3F0
:1036D000C3F34E0444EAC334C0F3072010FA84F461
:1036E000A4B2EAE7204638BD70B50446FFF7F6FB02
:1036F00088BB2378032B26D12379012B23D104F116
:103700003C06014605464FF400723046FFF708FBC1
:103710004AF65522A4F83A220F4AE26302F1FF5218
:1037200002F500522032C4F82022A269C4F82422F3
:103730006269C4F82822626A60780132A263314665
:103740000CF076FF25710022607811460CF0C0FF66
:10375000003818BF012070BD52526141F0B50023FE
:1037600085B00B600E461546FFF788FB013000F070
:1037700011818B4B1C68002C00F00E813460237883
:1037800005F0FE055BB160780CF004FFC30706D4BA
:103790000DB9002086E14707FBD50A2082E1002011
:1037A00020800CF073FEC60700F1F8800DB14107D0
:1037B000F3D400212046FFF7CBFB02281BD1D4F81D
:1037C00002320093D4F812320193D4F822320293D9
:1037D000D4F8323203936E46002556F8041B29B103
:1037E0002046FFF7B5FB012801D80BE00320013587
:1037F000042DF2D152E1042800F0CA80012801D939
:103800000D204FE10128A16B0AD104F146020B23E0
:1038100012F8015F002DF3D10133402BF8D1CBE03A
:10382000B4F84730B3F5007FEAD1B4F8526006B976
:10383000266E94F84C7026627B1E012BA770DFD891
:1038400094F849506581002DDAD06B1E2B42D7D1F8
:10385000B4F84DC0A4F808C01CF00F0FD0D1B4F8D4
:103860004F3003B9E36DB4F84A20002AC8D077433B
:1038700002EB1C1038448342C2D31B1AAB42B3FB89
:10388000F5FEBDD3474B9E45BAD84FF6F5739E451E
:1038900006D840F6F575AE458CBF0225012500E03F
:1038A00003250EF102030A440844032DE36161621B
:1038B000A262206307D1B4F866205CEA02029FD1BD
:1038C000A76E9B000DE0BCF1000F99D0022D1744AC
:1038D0004FEA43021BBFD21803F00103134603EB68
:1038E000520303F2FF13B6EB532FE76288D34FF076
:1038F000FF33C4E90533032D4FF08003237122D138
:10390000B4F86C30012B1ED101312046FFF708FBC3
:10391000C8B9B4F83A2220714AF655239A4212D116
:10392000E26B214B9A420ED103F1FF53D4F82022CF
:1039300003F5005320339A4205D1D4F82432A36111
:10394000D4F828326361194A2570138801339BB279
:103950001380E380164BE360164B236119E704F1F3
:103960003C0635446D69012D7FF64AAFE369AB42F1
:103970007FF646AF6189236BAA1E02FB01336363A6
:10398000A16A204601EBD511FFF7CAFA002876D0CC
:10399000012087E00B2085E00C2083E0032081E0FC
:1039A00088070020F5FFFF0F525261418407002075
:1039B000D406002004070020B4F8A430B3F5807FBB
:1039C0007FF41EAF94F8A830092B7FF419AFD4E927
:1039D00021064FF0FF33081846F10006834275EBCD
:1039E0000603FFF40DAFD4F89030236294F8AA30A8
:1039F000A370012B7FF404AF94F8A92093409AB2EE
:103A00006281002A3FF4FCAED4F898C0264A94455F
:103A10003FF6F6AE0CF10202E261D4F89420D4F83D
:103A20008C7061629BB20A440CFB03F39B18226307
:103A300045EB050298420F4476EB0202A762FFF4C1
:103A4000DFAED4F89C30E3622E4675B96389B34289
:103A50007FF6D6AEE16A2046FFF776F98119204657
:103A6000FFF75EFA002893D10136631993F83C30D2
:103A7000812B3FF474AF2035C5F30805E5E705F069
:103A80007F0356F823305A1C04D00135AB423FF473
:103A900077AFB5E6C4E90533042554E704287FF47D
:103AA000AFAE75E705B0F0BDFDFFFF7F2DE9F04734
:103AB00005680646884631B96F69A7B1EB69BB4214
:103AC00098BF012710E0FFF785FB0128044601D8C5
:103AD0000124D7E0421C00F0BB80EB69834200F276
:103AE000D180474600E00127AB690BB90024C9E04B
:103AF0002A78EB69042A59D1A7F1020A023B9A45B8
:103B000028BF4FF0000AD146696B284601EB1931F6
:103B1000FFF706FA30BB09F0070201239340EA6978
:103B2000C9F3C801DBB2023A68184C4690F83C0071
:103B300009F10109914500EA030002D25B00DBB202
:103B400003E0002399464FF4007108B902340DE0F8
:103B5000CA450AD0002BE7D10131B1F5007FD3D29D
:103B60000123E1E74FF0FF3400E00024631E03333C
:103B700000F2888001231A4621462846FFF746FABC
:103B80000228A5D0012863D0B8F1000F02D102238A
:103B9000F3714CE0F379022B5DD17B1CA34246D03C
:103BA000B368FB1AB3610323F37154E0474516D1A0
:103BB0007C1CA34298BF022421463046FFF70AFB33
:103BC000012885D0431C43D040B1D5F81490B9F1F9
:103BD000010F04D9EB69994502D300E0BCB9B9469D
:103BE0004C46EB690134A34204D8B9F1010F3FF40C
:103BF0007DAF022421463046FFF7ECFA38B10128A8
:103C00003FF466AF013023D04C45EAD16EE74FF068
:103C1000FF3221462846FFF735FAB0B9B8F1000F58
:103C200005D0224641462846FFF72CFA68B9D5E967
:103C30000632023A93429CBF03F1FF33AB612B790A
:103C40006C6143F001032B711CE001287FF440AF4D
:103C50004FF0FF3416E008F10102A242F36904D1EB
:103C60000BB101330CE002230AE00BB90123F3612D
:103C7000224641463046FFF77DFA0028E5D1012370
:103C8000F361D4E72046BDE8F08700002DE9F84352
:103C90000668076B3378042B14BF4FF400134FF002
:103CA00080532037BB429CBF00238363836B044651
:103CB000894673B1C7F30808B8F1000F3BD1416BD7
:103CC0000133836339B93389B3EB571F33D80023EA
:103CD000A363042036E07389013B13EA57232AD1FA
:103CE000FFF778FA0128054601D802202AE0421C95
:103CF00001D1012026E0F369834216D8B9F1000F03
:103D0000E5D0616B2046FFF7D1FE0546C8B101281A
:103D1000EBD0431CEDD001463046FFF7B7FB00283F
:103D2000E7D1E37943F00403E37165632946304644
:103D3000FFF70AF8A0633C3646442763E663002099
:103D400000E00720BDE8F8832DE9F0410546006852
:103D5000A96B0669FFF7E4F808B101245CE0E96BA0
:103D60000B78852B01D0022456E0202204463046F1
:103D7000FEF7CCFF73786FF05F0201334FEA431810
:103D800002EB4313B3F5007FEDD821462846FFF739
:103D90007DFF04280446E6D000283DD1A96B2868A1
:103DA000FFF7BEF80028D8D1E96B0B78C02BDAD129
:103DB0002022B018FEF7AAFF96F823300F222C33EA
:103DC000B3FBF2F3B8EB431FCDD3402700212846C5
:103DD000FFF75CFF04280446C5D0E8B9A96B286842
:103DE000FFF79EF804460028B7D1E96B0B78C12B8A
:103DF000B9D17F2F03D82022F019FEF787FF203793
:103E0000B845E3D8802F07D83046FEF7B9FF74884D
:103E1000241A18BF012464002046BDE8F081000088
:103E2000F8B50E46002107680446FFF765FAF0B9B9
:103E30000546A16B3846FFF773F8C0B93A78E36BD3
:103E4000042A1B7802D11B0603D506E0E52B00D01F
:103E50001BB90135B54201D109E0054601212046D3
:103E6000FFF714FF0028E4D0042808BF0720F8BD9E
:103E700003682DE9F0411E6905463046FEF780FFD4
:103E8000E96C708028467778FFF736FA4FF0010822
:103E90000446B4B9A96B2868FFF742F8044680B914
:103EA000E86B20223146FEF731FF2B6883F8038050
:103EB0003FB121462846FFF7E9FE20360446013F80
:103EC000E7E7022C28BF0224E0B2BDE8F081000041
:103ED000C16CF8B54B1C0568066B044601D101277F
:103EE00003E0FFF709FAD8B9F9E7A16B2846FFF715
:103EF00017F8A8B92B78E26B042B0ABF1378E523D7
:103F000003F07F031370EF70236BB34208D20021DC
:103F10002046FFF7BBFE0028E7D0042808BF022098
:103F2000F8BD00002DE9F843FF27066804463D462A
:103F30000420A16B002974D03046FEF7F1FF002861
:103F400072D1E06B0378002B6DD03278042A0ED149
:103F5000852B5FD1236BE3642046FFF7F5FE002835
:103F600062D133691B7903F03F03A3714BE0C27A3E
:103F7000E52B02F03F02A2714BD02E2B49D022F04C
:103F80002001082945D00F2A38D1590605D503F05C
:103F9000BF05236B477BE36401E0AB4239D1437B30
:103FA000BB4236D1428BA2BB0378D6F80CE0DFF8D7
:103FB000808023F040030D21013B4B434FF6FF79F6
:103FC000012118F801CB30F80CC031B1162B20D8E4
:103FD0002EF813C06146013301E0CC4519D10132FE
:103FE0000D2AEED10278520605D521B1162B10D834
:103FF00000222EF81320013DEDB20BE02DB9FEF7A3
:10400000AFFEB84201D1002010E04FF0FF33E3646F
:10401000F9E7FF2500212046FFF738FE002888D069
:1040200002E00028EFD004200023A363BDE8F8835A
:10403000B82D01082DE9F04F002187B0D0F800809D
:104040000446FFF759F90746002840F0DC8098F84D
:104050000030042B3BD1D8F80C00FFF72BFB814636
:104060002046FFF75FFF054678BBD8F8103093F87D
:104070002360162EF4D89B8C4B45F1D14FF0400AAB
:10408000B54213D01AF01F0F08BF0AF1020AD8F880
:10409000103033F80A0001F0D1F8D8F80C3083461C
:1040A00033F8150001F0CAF8834503D0761BF6B249
:1040B00026B1D5E70AF1020A0135E1E7D8F80C305C
:1040C00033F81530002BCBD19DE007469BE04FF035
:1040D000FF33E36404F14003CDE903034FF0FF0A2B
:1040E0005546A16B4046FEF71BFF002840F0868036
:1040F000E66B3178002900F08380F27AE52902F03E
:104100003F03A3716AD0120758D50F2B66D194F8DC
:104110004B305F066BD4480606D5236B96F80DA08E
:10412000E36401F0BF0101E08D425FD1737B534531
:104130005CD1738B002B59D13578D8F80C70DFF82F
:10414000D490CDF804A005F03F050D23013D5D435B
:1041500009EB0302C3460123B84605913746029492
:1041600019F8010B37F800A08BB1162D3AD850463C
:1041700001F064F8044638F8150001F05FF8844255
:1041800005F101062ED1224A5346354603E04FF68B
:10419000FF718A4526D19145E2D13E46DDF804A063
:1041A00032780599029C52064746D84603D513B18A
:1041B00037F81530D3B90139CDB218E025B93046FA
:1041C000FEF7CEFD50451DD094F84B30DB0705D4EB
:1041D00004990B223046FEF7A9FD98B14FF0FF334A
:1041E000E36403E0DDF804A0029CD846FF2500212B
:1041F0002046FFF74BFD00283FF473AF074602E06F
:10420000042700E0039F384607B0BDE8F08F00BFE9
:10421000C52D0108B82D01082DE9F04F90F84B800D
:1042200018F0A00899B040F08E810668F368044643
:1042300033F8182012B108F10108F9E73378042B9C
:1042400040F08F800F2308F10E082046B8FBF3F8EA
:1042500008F10201FFF7E4FD0546002840F07481F3
:10426000236B08F10108A3EB4813E364E3795F07CC
:1042700047D523F00403E3712046FEF793FF00289F
:1042800040F06281616B4FF0FF322046FEF772FF13
:10429000002840F05981A368002B32D02368029394
:1042A000236A0493636A8DF80F3023F0FF03CDE98E
:1042B0000630A16A099002A81591FFF71DF80028A1
:1042C00040F0428102A8FFF73FFD002840F03C810A
:1042D000D4E9043170894FF40072E0FB0231326995
:1042E000C4E90431C2E90E31C2E90A31E37943F08D
:1042F000010382F8213002A8FFF7BAFD002840F040
:104300002381D6E903644022002185232046FEF75D
:1043100007FD2370C02384F82030012240234FF092
:10432000C10C0F46581C04F803C02754023322B1B5
:1043300036F815200AB10135EDB2E2520233D80643
:10434000F5D136F8150001F1010E08B17146E9E723
:10435000023184F8235061703046FFF7ABF9A08436
:10436000EFE004F140070C22394602A8FEF7CEFC2C
:104370009DF813A01AF0010F6CD04023744D84F8FF
:104380004B304FF001090B2202A93846D6F80CB089
:10439000FEF7BCFCB9F1050F13D9ABF102024B4695
:1043A00032F8021F71B1102001F0010C0CEB430335
:1043B00013F4803F18BF6B4001384FEA5101F3D12D
:1043C000EEE74B4602A8072203F00F0C0CF1300178
:1043D000392988BF0CF13701013A9E4600F8011DCA
:1043E0004FEA131302D0BEF10F0FEDD802F16003B4
:1043F0006B447E2103F8601C04F13F0100239342CB
:1044000007D011F8010F202803F1010C01D06346F9
:10441000F5E73F33234404F14700072A06D802F1A9
:1044200060016944013211F8601C00E0202103F8AA
:10443000011F9842F1D12046FFF7FCFD30B909F188
:104440000109B9F1640F9ED107207DE004287BD1DA
:1044500084F84BA01AF0020F06D008F10C050D23CA
:10446000B5FBF3F5013500E0012529462046FFF7AD
:10447000D7FC002868D1013D18D1A16B3046FEF76A
:104480004FFD002860D101462022E06BFEF748FC7A
:104490000B22E06B3946FEF739FC94F84B30E26BA7
:1044A00003F0180313730123F3704AE0216B2046D5
:1044B000A1EB4511FEF720FF002845D13846FEF755
:1044C0004FFC4FF6FF798046A16B3046FEF728FD82
:1044D0000346C8BBE26BD6F80CE0DFF878A0107397
:1044E0004FF00F015FFA85FCD17250830CF1FF3160
:1044F0000D20414382F80D801846484518BF3EF80C
:1045000011001AF801BB03F1010318BF013122F8B1
:104510000B00002808BF48460D2BEED1484502D0BD
:104520003EF811300BB94CF0400C012382F800C06A
:104530000021F3702046FFF7A9FB28B9013DC3D144
:104540009BE7002000E0062019B0BDE8F08F00BF17
:1045500021100100B82D0108436B8B60D0E90E23B8
:10456000C1E9042390F8213003F00203CB7100234A
:10457000CB61704703284B8B04BF8A8A43EA02430E
:10458000184670472DE9F04F85B003680293054641
:104590008B4611F8013B2F2BFAD05C2BF8D000236F
:1045A000AB60EB619BF800301F2B00F2B3808023DF
:1045B0000021284685F84B3005B0BDE8F04FFEF7E6
:1045C0009BBE40F2623100F025FE002800F03F81E2
:1045D0001F2817D92F2800F046815C2800F043815E
:1045E0007F2805D8A94B13F8012B002A40F09780AB
:1045F000162E00F02C8129F8160001361BF8010B4D
:104600000028DED1042409EB46033EB133F8022D25
:10461000202A00F088802E2A00F085804FF00003C9
:1046200029F8163009EB4602002E00F01081002117
:1046300039F8110020280B4601F10101F8D0002BB8
:1046400073D12E2871D032F8021D2E2901D0013EDF
:10465000F9D10B22202105F140000027FEF760FB75
:104660004FF008084A46CDF804B0BA46B146AB460A
:1046700032F813005E1C002800F0C08020285BD0B8
:104680002E2856D047455CD3B8F10B0F5CD15D4660
:1046900044F00304DDF804B0E4B24FF00B0895F8E1
:1046A0004030E52B04BF052385F84030B8F1080FF2
:1046B00004BF4FEA8A015FFA81FA0AF00C030C2B5F
:1046C00040F0A08044F00204E4B285F84B40284654
:1046D000FFF7B0FC95F84B30002840F0A6805A0751
:1046E00000F1D080AB79DB0640F1B380029B1878F3
:1046F000042840F0A180AB682B622B69EA7923F093
:10470000FF0313436B62EB6CAB62029B2946186993
:10471000FFF722FF2B680026D3F80C906EE790423B
:104720007FF461AF93E0013E6FE744F00304E4B22D
:1047300089E74E4500F08F8044F00304E4B233462D
:1047400096E74E450FD189E04E4503D044F003046F
:10475000E4B253D84FEA8A0A5FFA8AFA4E464FF01B
:104760000B080827EBE77F2824D940F26231039237
:1047700000F034FD44F0020510F0800F039AEDB212
:1047800004D0434B00F07F00185C11E0FF280FD9E4
:1047900008F1FF339F4204D344F00304E4B24746D8
:1047A000CDE70BEB0703010A83F8401001371EE049
:1047B00038B100E02546374B13F8011B31B1884270
:1047C000FAD145F00305EDB25F2010E0A0F14103FE
:1047D0009BB2192B02D84AF0020A08E0A0F161034B
:1047E0009BB2192B03D820384AF0010A80B20BEB98
:1047F00007032C4683F840000137A0E75D46DDF84B
:1048000004B04CE70AF00303032B3FF45BAFA107AE
:104810003FF55BAF0AF0010344EA0313DCB21AF080
:10482000040F18BF44F008044FE704282AD113F0FE
:10483000040F08BF052025E0029B03F13C012B6B10
:10484000C3F308031944FFF795FEA86062E706204A
:1048500018E0052016E04745BFF416AFB8F10B0F7E
:104860007FF478AF13E75B461C782F2C9B4603F14F
:104870000103F9D05C2CF7D01F2C8CBF002401243D
:10488000A400C0E605B0BDE8F08F00BF0D29010807
:10489000382D0108162901081FB5CDE9001003A81D
:1048A00014460391FEF7EAFA013011D00A4A136860
:1048B0000BB100211970019B0BB10021197013601D
:1048C0003CB1002201A96846FEF748FF044600E01B
:1048D0000B24204604B010BD880700202DE9F04FBE
:1048E0009BB00191002800F0238102F03F09174698
:1048F00004464A4603A901A8FEF730FF8046002877
:1049000040F01281039D8DF8160000230199049553
:1049100004A81393FFF736FE9DF816B0139E20B936
:104920009DF95B30002BB8BF062017F01C0F77D025
:1049300070B1042840F0F88004A8FFF76DFC00284F
:1049400040F0F2809DF816B0139E49F0080908E087
:104950001BF0110F40F0E580780700F1DE80390789
:104960006CD52B78042B2CD1286925602146FFF7C4
:10497000F3FD00211E220230FEF7D2F928691A2227
:104980002630FEF7CDF92B6920221A712F690BF022
:104990007BFD2B69B860012283F8212004A88DF8E3
:1049A00016B01396FFF764FA002840F0BD80A168A6
:1049B000139E002940D002462046FEF7E5FCA7687A
:1049C00028E00BF061FDC6F80E00C6F81600287846
:1049D0003146FFF7CFFD2023F3722A780023032A04
:1049E000738308BFB382F36101230746EB7018B3EA
:1049F0000146002204A8D5F838A08DF816B0139609
:104A0000FEF7C2FC002840F08F8051462846139ED6
:104A1000FEF786FA013F6F61002840F085800BE0C9
:104A2000002840F081801BF0100F78D1BA0705D51F
:104A30001BF0010F75D101E049F04009AB6BC4E9EF
:104A40001236287804280FD1069B2362089B9DF814
:104A50001720286923F0FF0313436362179BA362A7
:104A60002146FFF779FD07E03146FFF783FDA0609F
:104A7000F369236100236361EB88A3804FF0000A90
:104A80000022002304F15007C4E90E23256084F8B6
:104A9000309084F831A0C4F844A04FF4007251461D
:104AA0003846FEF73DF919F0200F43D0D4E90469E8
:104AB00056EA09033ED0B5F80AB0A168C4E90E6908
:104AC0004FEA4B2BB3457AEB09030DD22046FEF794
:104AD00081FBB6EB0B0669F100090128014605D9F7
:104AE000431CEFD1012002E0002000E002202164FD
:104AF000D0B9C6F30803EBB12846FEF725F990B10B
:104B0000760A46EAC95682196264687801233946F2
:104B10000BF04CFD70B1012006E0082004E00420F9
:104B200002E0072000E0022000232360804601E02D
:104B30004FF0090840461BB0BDE8F08F2DE9F04F5B
:104B40009A4687B000238846CAF8003005A9044673
:104B50001646FEF7A9F9002840F0BB8094F8319082
:104B6000B9F1000F40F0BA8094F8303013F001052D
:104B700000F0B280D4E90432D4E90E105B1A62EB83
:104B80000002B34272F1000238BF1E4604F1500326
:104B9000CDE90035CDF80890002E00F09780D4E9DB
:104BA0000E30C3F30802002A73D1DDF814B0BBF84D
:104BB0000A20590A013A41EAC05112EA010917D103
:104BC000034301D1A06803E0216C2046FEF702FBFD
:104BD000012804D84FF0020984F831907EE0431C8C
:104BE00005D1019D012384F83130A94676E0206487
:104BF000216C5846FEF7A8F80028EBD0B6F5007FE8
:104C000009EB000724D3BBF80A1009EB56208842B1
:104C10004FEA562588BFA1EB09059BF801002B46FA
:104C20003A4641460BF0C2FC0028DAD194F9302014
:104C3000002A0BDA606CC01BA84207D24FF4007246
:104C400004F1500108EB4020FEF760F86F022EE0FF
:104C5000626CBA421CD094F93030002B04F1500140
:104C60000EDA9BF80100039101230BF0E1FC002810
:104C7000B7D194F83030039903F07F0384F83030D3
:104C80009BF8010001233A460BF090FC0028A8D1C4
:104C90006764A16B009BC1F30801C1F50077B742BF
:104CA00028BF37463A4619444046FEF72FF8DAF84F
:104CB00000303B44CAF80030D4E90E32DB1942F12F
:104CC0000002C4E90E32F61BB84465E7DDF808902F
:104CD00004E04FF0090901E04FF00709484607B02A
:104CE000BDE8F08F2DE9F04F1F4685B000230E463A
:104CF0003B6003A904461546FEF7D6F8002840F0AD
:104D0000DB8094F831B0BBF1000F40F0DA8094F80A
:104D100030309A0740F1D380DDF80CA09AF80030CB
:104D2000042B03D0A36BEB4228BFDD4304F15003F7
:104D3000CDE900B3DDB1D4E90E31C3F30802002A96
:104D400040F08D80BAF80A905A0A09F1FF3942EA18
:104D5000C15219EA020923D10B4302D1A16879B9E2
:104D600000E0216C2046FEF7A1FE014640B994F810
:104D70003030DDF800B043F0400384F83030A0E07C
:104D8000012902D14FF0020B03E04B1C04D14FF07C
:104D9000010B84F831B094E0A368216403B9A160E9
:104DA00094F93030002B0FDA626C9AF8010001237D
:104DB00004F150010BF03CFC0028E8D194F83030AD
:104DC00003F07F0384F83030216C5046FDF7BCFFC0
:104DD0000028D7D0B5F5007F09EB000828D3BAF832
:104DE0000A209AF8010009EB552191424FEA552B10
:104DF00088BFA2EB090B5B46424631460BF018FC1C
:104E00000028C4D1616CA1EB080159450DD24FF4C3
:104E1000007206EB412104F15000FDF777FF94F892
:104E2000302002F07F0284F830204FEA4B282AE03D
:104E3000636C434511D0D4E90413D4E90E028842CF
:104E400072EB030309D29AF801000123424604F1F0
:104E500050010BF0ABFB002899D1C4F84480A06B43
:104E6000019BC0F30800C0F50078A84528BFA846FC
:104E7000184442463146FDF749FF94F8303063F05C
:104E80007F0384F830303B6843443B60D4E90E3202
:104E9000D4E9040118EB030342F10002984271EBDC
:104EA000020C3CBF18461146C4E90E32C4E90401A5
:104EB000A5EB080546443DE74FF0090B01E04FF034
:104EC000070B584605B0BDE8F08F00002DE9704390
:104ED00098B001A90446FDF7E7FF002840F086805E
:104EE00094F8303013F0400000F081801B06019DE3
:104EF0000FD5626C6878012304F150010BF098FB28
:104F000008B1012073E094F8303003F07F0384F897
:104F100030300BF0B9FA2B78042B064641D12046ED
:104F2000FEF740F9002862D1216C4FF0FF32204695
:104F3000FEF720F900285AD123680293236A0493CC
:104F4000636A8DF80F3023F0FF03CDE90630A16AC4
:104F5000099002A81591FEF7CFF9002847D102A8C1
:104F6000FEF7F2FE002842D12A69137943F02003AC
:104F70001371E3792A6943F0010382F821302B6928
:104F8000A2685A63D4E904895875C3E90E89C3E954
:104F90000A89DE602B69186102A8FEF769FF30BB41
:104FA0001AE0A16C2846FDF7BBFF0028A9D1E36CED
:104FB000DA7A42F02002DA722168A26809785A830C
:104FC000032904BF120C9A822269DA610022C3F815
:104FD00016605A820123EB702846FEF785FB94F891
:104FE000303023F0400384F8303000E0092018B05E
:104FF000BDE8708313B50446FFF768FF38B901A90F
:105000002046FDF751FF08B9206000E0092002B0FA
:1050100010BD000030B585B0019100283BD004469A
:10502000002203A901A8FEF799FB002830D1039DB7
:10503000019925602046FFF7A5FA20BB94F94B3073
:10504000002B18DBA379DB0621D5287804280ED1A4
:10505000A36823622369E279286923F0FF031343DD
:105060006362E36CA3622146FFF776FA03E0E16B2B
:10507000FFF780FAA060EB88A38000212046FEF7AE
:105080003BF948B104E0042808BF052000E00520F2
:105090000023236000E0092005B030BD13B501A94D
:1050A0000446FDF701FF00B9206002B010BD00000A
:1050B00073B50D4601A90446FDF7F6FEC8B935B92A
:1050C0002946204602B0BDE87040FEF715B92046DB
:1050D000FEF728FF10F0FB060CD129462046FEF70C
:1050E0001BFA31462046FEF7D1FD042808BF0020F8
:1050F00000E0092002B070BDF8B506460C4601F18B
:105100001A0721463046FFF7D3FF054650B94CB188
:10511000A37E3BB102460423306D3946FDF75AFEAB
:105120000028EED02846F8BDF0B5BDB002220190AF
:1051300003A901A8FEF712FB00284DD1039C019999
:10514000109410A8FFF71EFA002845D19DF98B3066
:10515000002B40DB9DF84670FA0701D507203BE0A5
:1051600026780494042E05D1206904A9FFF7F4F9E8
:10517000069D04E01F993046FFF7FCF90546FB0643
:1051800004D410A8FEF7A4FEC8B125E0042E26948E
:10519000289507D1DDE90823CDE92A239DF81730AA
:1051A0008DF89F30002126A8FEF7A6F8A0B926A802
:1051B000FEF7B8FE0028D1D004280DD1E1E71DB9D3
:1051C0002046FEF791FA07E00246294604A8FEF7BA
:1051D000DBF808B9F4E706203DB0F0BD7F2801D820
:1051E00080B27047B0F5803F03D240F262339942FB
:1051F00001D000207047064A002302E00133802BD3
:10520000F7D032F8021B8142F8D1803398B2704750
:10521000783001087F2804D940F26233994201D0E6
:1052200000207047FF28FBD800F10040024B803877
:1052300033F81000704700BF78300108B0F5803FA8
:105240001DD230B584B2B4F5805F34BF224B234BFE
:1052500004330DE08C4210D333F8022C5FFA82FC49
:105260000CEB010E70454FEA122209DB043382B1C8
:1052700033F8041C1D460029ECD1204630BD704790
:10528000082AFAD8DFE802F0241E1B1815120F0CAA
:10529000080005EB4C03DBE7A4F5E354A4B2ECE70C
:1052A000503CA4B2E9E70834A4B2E6E71A3CA4B241
:1052B000E3E7303CA4B2E0E7203CA4B2DDE7103CD9
:1052C000A4B2DAE7631A03F00103E41AA4B2D4E744
:1052D000401A33F81040D0E7842E0108C82D010889
:1052E00008B5202383F311880348FCF74FFA002305
:1052F00083F3118808BD00BFB007002038B50C4605
:10530000202383F3118802290CD0032903D0002322
:1053100083F3118838BD0C48FCF702FA002383F3AD
:10532000118838BD0546094A0121FCF7F5FA084AFB
:1053300021462846FCF7F0FA0348FCF7FDF9002364
:1053400083F3118838BD00BFB0070020243A01085C
:10535000083A0108174AD2F8B407D2F8AC37D2F8A5
:10536000B01710B5144C03440B43204604F1180E3B
:1053700003F01F020A2A34BF4FF0300C4FF0370CF5
:10538000624420F8022F5B09864543EAC1634FEA75
:105390005111EDD1094840F21A3100231A22A0F828
:1053A000E01FA0F8D82FA0F8DA3FC0F8DC4F00F6D5
:1053B000D87010BD00F0FF1FD4990020F4890020A0
:1053C00002290ED0032903D0012908D109487047CA
:1053D000032A08D003D8084800EBC2007047002019
:1053E000704706487047064B9B8ADB05F3D5FFF7ED
:1053F000B1BF00BFE83A0108403A01089C3A0108F1
:1054000018030020144B5B8B834221D9134B03EB11
:10541000C003D3ED017A93ED007A67EEA77AE7EE49
:10542000077AF5EEC07AF1EE10FA11D9F1EEE77ACB
:105430009FED0B7AF4EEC77AF1EE10FA08DAB7EEC8
:10544000007A77EE876A37EE677A86EE870A7047CA
:105450009FED040A704700BFA80A0020544F0020A7
:1054600072F97F3F003C1C46054B1B6810B41C685A
:1054700024680A460146184623465DF8044B18473F
:10548000A4680020704700BF10B4274C638B002B2A
:1054900041D004EBC30C224604F65851B7EE003A53
:1054A00004F5CF53D2ED354A92ED344AD3ED005A8C
:1054B000D3ED017A91ED016A91ED005A74EEE76A3D
:1054C00034EE657A75EEC45A77EEE47A66EE666A73
:1054D00075EE033A27EE067A33EE455A65EE864AB4
:1054E0000128E7EEA34AE5EE856AA7EE857A27EE66
:1054F000866A05D0F0EE466AE5EEE36AB1EE647ABC
:1055000008326245C3ED006A83ED017A01F10801BA
:1055100003F10803C6D1A38C23F0040343F0400336
:10552000A3845DF8044B7047A80A0020024B53F88F
:105530000A2F002AFBD17047303D0108094A08B5FF
:10554000138B03F00101814200D108BD23F0010358
:1055500003432820138306F04BF9034B00221A77EC
:1055600008BD00BFA80A0020180300202DE9F04F55
:105570002DED028B061E83B015467EDA594CD4F809
:105580000CA08A450F4680F08E80B4F822902069E6
:1055900009F1FF3988421FFA89F940F28680A0EBB1
:1055A0000A08A1EB0A0042460023A0FB0901FBF711
:1055B000ADF90646A6FB08CBC0174FEA59011CEB14
:1055C000010108FB00BB4BF1000B4A46002301918F
:1055D00008465946FBF79AF90199034618EB010072
:1055E0004BF1000198464A460023FBF78FF90AEB7E
:1055F000080B5F458244A0EB08003FD0002856D03E
:10560000A7EB0B0307EE900A07EE103AF8EE677A65
:10561000B8EE477A87EE278A584603F09BFC80460F
:10562000504603F097FC404544D1731C2A1D04EBFF
:10563000C60604EBC3032C35D6ED347A93ED347AE9
:1056400037EE677A1146E7EE087A083242ED037AC0
:10565000D6ED357A93ED357A37EE677A9542E7EEF7
:10566000087A06F6884603F68843C1ED007AE3D14E
:1056700003B0BDEC028BBDE8F08F1A4C2B1D04EB80
:10568000C6042C35D4F8D02043F8042CD4F8D42008
:1056900043F8082B9D4204F68844F3D103B0BDECD7
:1056A000028BBDE8F08F0026E8E74E46E6E79FED67
:1056B0000E8AB1E7384603F04DFC404508D0B145AD
:1056C000DCDDF7EE007AB31C38EE678A0136ADE711
:1056D000002ED3DDF7EE007A334638EE278A013EFE
:1056E000A4E700BFA80A002000000000012800D0A5
:1056F000704708B50B460E49186803F01BFA60B1F5
:10570000012804D10B4A137823F040031370BDE83D
:1057100008404FF48D7006F06BB8064A137843F0DA
:1057200040031370BDE808404FF48D7006F060B878
:10573000A03C0108C403002038B505220C4903F041
:1057400015FA80B20B4A431E042B10800DD80A4C68
:105750000A48074D02E054F80A0F30B1296803F0F7
:10576000E9F90028F7D1204638BD0024204638BD8D
:105770008868002084680020303D010880190108F5
:1057800070B5061E18DD0C1F002554F8040F2149C2
:1057900003F0D0F907280FD8DFE800F037332B23C8
:1057A0001D150F041C4A138B23F0180343F010033C
:1057B00013830135AE42E8D170BD174A138B23F035
:1057C00018031383F5E7144A138B23F0180343F0EF
:1057D00008031383EDE7104A138B23F006031383AA
:1057E000E7E70D4A138B23F0060343F0040313830A
:1057F000DFE7094A138B23F0060343F00203138308
:10580000D7E70020FFF79AFED3E70120FFF796FEC7
:10581000CFE700BFD43C0108A80A0020012800D02F
:10582000704708B50B460649186803F083F900284D
:1058300000DA08BDBDE80840C0B205F0EDBF00BF0A
:10584000683C0108022800D0704770B508680C4613
:1058500003F0B0F883B21F2B054600D970BD606815
:1058600003F0A8F80646606803F0A4F8F6004301C8
:1058700003F4F853606806F460461E4303F09AF898
:10588000030C03F0F80360681E4303F093F8074A23
:10589000ADB202EB4502C0F34233334340F21A305B
:1058A000BDE87040D38305F0A3BF00BF18030020FC
:1058B000012800D0704708B5086803F07BF8014B59
:1058C000586008BD18030020012800D0704708B5B3
:1058D000086803F055F8014B188308BD1803002031
:1058E00010B5164B164CE0B0C3F800D0C02323808F
:1058F0000128238819D0002003F0CEFC114B124957
:105900005B8B4FF0804202339BB2526A0B8023883C
:105910000E491BB2C832002B0A6004DD30BF238859
:105920001BB2002BFADC60B010BD086803F028F849
:10593000074B013818BF01201880DCE7A40A0020BB
:10594000A20A002018030020980A00209C0A0020C8
:10595000A00A0020012800D07047086803F010B8A2
:10596000022800D0704738B50C460849206803F07B
:10597000E1F8051E00DA38BD606803F01BF8C1B21B
:10598000A8B2BDE8384009F03DBD00BFA83C010801
:10599000012808B509D10B460A49186803F0CAF86E
:1059A00018B9BDE8084009F017BDBFF34F8F06498D
:1059B000064BCA6802F4E0621343CB60BFF34F8F1B
:1059C00000BFFDE78819010800ED00E00400FA05BA
:1059D000012800D0704708B5086802F0EBFFBDE869
:1059E000084003F08FBA00BF0BF070B8022838B53A
:1059F00008D04FF0FF32154629460220BDE8384056
:105A000009F0C2BF08680C4602F0BAFF05B2606830
:105A100002F0B6FF294602B2BDE83840022009F084
:105A2000B3BF00BF022800D0704738B508680C46E5
:105A300002F0A6FF0546606802F0A2FF29B202B29A
:105A4000BDE83840012009F09FBF00BF012800D009
:105A5000704708B5086802F0ADFF062800D908BDF8
:105A60000AF0DAFEBDE80840102005F0C1BE00BF14
:105A700000B9704738B5044608680D4602F09AFF31
:105A8000012C024607DD022C69680AD0A868BDE82F
:105A9000384008F077BF00210846BDE8384008F0DC
:105AA00071BF0020F9E700BF09F0C6BB08B509F0D7
:105AB0009DFBBDE8084040F21A3005F099BE00BFDA
:105AC000012800D0704708B50B460549186803F057
:105AD00031F800B108BDBDE808400AF01FBF00BFA3
